:020000040000FA
:1000000005100130860085146F2585106F250A289C
:040010000034003484
:0C00140083120313850183160317880173
:1000200089018316031385018601FF30870088014B
:1000300089010313831249288501860187018801FC
:100040008901D301D401D501B401B801B901C001BE
:10005000C101C201C301C401C501C601C701C80174
:10006000C901D001D101D201D601051001308600AD
:1000700085146F2585106F250C30860085146F253B
:1000800085106F253C30860085146F2585106F25FF
:1000900008001C206F2479251C200024C730D600BE
:1000A00005106F25560886006A259B22D730D6009A
:1000B00005106F25560886006A255F222922D31D68
:1000C0004B21D31967200815871D642849281C2057
:1000D00005106F25803086006A2505146F25433092
:1000E00086006A256F3086006A256E3086006A2594
:1000F000743086006A25723086006A256130860079
:100100006A25733086006A25653086006A256E3060
:1001100086006A25613086006A25203086006A25BF
:10012000203086006A25203086006A25203086002F
:100130006A25203086006A25203086006A25051051
:100140006F25C03086006A2505146F25493086006A
:100150006A256E3086006A25633086006A256F3016
:1001600086006A25723086006A25723086006A250C
:10017000653086006A25633086006A257430860003
:100180006A25613086006A25203086006A253A306B
:1001900086006A25283086006A25203086006A2578
:1001A000203086006A25203086006A2520308600AF
:1001B0006A25203086006A2505106F25903086005C
:1001C0006A2505146F25493086006A256E30860041
:1001D0006A25673086006A25723086006A25653098
:1001E00086006A25733086006A25653086006A2598
:1001F000203086006A252A3086006A252030860055
:100200006A25203086006A25203086006A25203045
:1002100086006A25203086006A25203086006A25FF
:10022000203086006A2505106F25D03086006A25AB
:1002300005146F25703086006A25613086006A25B6
:10024000723086006A25613086006A25203086007B
:100250006A25633086006A256F3086006A256E3015
:1002600086006A25743086006A25693086006A2512
:100270006E3086006A25753086006A2561308600FA
:100280006A25723086006A252E3086006A252E3057
:1002900086006A2508001C2005106F258030860026
:1002A0006A2505146F25433086006A256F30860065
:1002B0006A256E3086006A25743086006A257230A1
:1002C00086006A25613086006A25733086006A25BB
:1002D000653086006A256E3086006A2561308600AA
:1002E0006A25203086006A25203086006A25203065
:1002F00086006A25203086006A25203086006A251F
:10030000203086006A2505106F25C03086006A25DA
:1003100005146F25433086006A256F3086006A25F4
:10032000723086006A25723086006A256530860044
:100330006A25633086006A25743086006A2561303C
:1003400086006A25203086006A253A3086006A25B4
:10035000293086006A25203086006A2520308600F4
:100360006A25203086006A25203086006A252030E4
:1003700086006A2505106F25903086006A250514D1
:100380006F25493086006A256E3086006A25673001
:1003900086006A25723086006A25653086006A25E7
:1003A000733086006A25653086006A252030860015
:1003B0006A252A3086006A25203086006A2520308A
:1003C00086006A25203086006A25203086006A254E
:1003D000203086006A25203086006A25203086007D
:1003E0006A2505106F25D03086006A2505146F2513
:1003F000703086006A25613086006A25723086007A
:100400006A25613086006A25203086006A256330BF
:1004100086006A256F3086006A256E3086006A2560
:10042000743086006A25693086006A256E30860041
:100430006A25753086006A25613086006A2572302B
:1004400086006A252E3086006A252E3086006A25B1
:1004500008003408D4004508D50052223808D400DA
:100460004608D50052223908D4004708D500522248
:100470004008D4004808D50052224108D400490859
:10048000D50052224208D4005008D5005222430819
:10049000D4005108D50052224408D4005208D50097
:1004A00052220800540855020318572A592A5A2282
:1004B0000800080003190800031DD3150800D722FF
:1004C000D31C5F2A5408C500D301D60AD722D31CF7
:1004D000662A5408C600D301D60AD722D31C6D2A37
:1004E0005408C700D301D60AD722D31C742A540853
:1004F000C800D301D60AD722D31C7B2A5408C900CE
:10050000D301D60AD722D31C822A5408D000D301A3
:10051000D60AD722D31C892A5408D100D301D60A7F
:10052000D722D31C902A5408D200D3010814871D67
:10053000962A08100800D722D31C9B2A5408B4001E
:10054000D301D60AD722D31CA22A5408B800D3015B
:10055000D60AD722D31CA92A5408B900D301D60A37
:10056000D722D31CB02A5408C000D301D60AD72200
:10057000D31CB72A5408C100D301D60AD722D31CF2
:10058000BE2A5408C200D301D60AD722D31CC52ADA
:100590005408C300D301D60AD722D31CCC2A54084E
:1005A000C400D3010814871DD22A081008000815BA
:1005B00007180D2387185E230719AF230811881425
:1005C00007182823871879230719CA238719F222C5
:1005D0008810081407184323871894230719E52364
:1005E00008100800D3140030D40005106F255608F9
:1005F00086006A2505146F25303086006A25792526
:1006000005106F25560886006A2505146F252A30C7
:1006100086006A2587190A2B0800D3140130D400FC
:1006200005106F25560886006A2505146F253130A0
:1006300086006A25792505106F25560886006A25EB
:1006400005146F252A3086006A250718252B080017
:10065000D3140230D40005106F25560886006A2591
:1006600005146F25323086006A25792505106F251F
:10067000560886006A2505146F252A3086006A25EB
:100680000718402B0800D3140330D40005106F2541
:10069000560886006A2505146F25333086006A25C2
:1006A000792505106F25560886006A2505146F25E3
:1006B0002A3086006A2507185B2B0800D314043003
:1006C000D40005106F25560886006A2505146F258D
:1006D000343086006A25792505106F255608860076
:1006E0006A2505146F252A3086006A258718762B1F
:1006F0000800D3140530D40005106F255608860075
:100700006A2505146F25353086006A257925051080
:100710006F25560886006A2505146F252A30860045
:100720006A258718912B0800D3140630D4000510D1
:100730006F25560886006A2505146F253630860019
:100740006A25792505106F25560886006A25051447
:100750006F252A3086006A258718AC2B0800D31431
:100760000730D40005106F25560886006A25051449
:100770006F25373086006A25792505106F255608C4
:1007800086006A2505146F252A3086006A25071918
:10079000C72B0800D3140830D40005106F25560865
:1007A00086006A2505146F25383086006A2579256C
:1007B00005106F25560886006A2505146F252A3016
:1007C00086006A250719E22B0800D3140930D400EB
:1007D00005106F25560886006A2505146F253930E7
:1007E00086006A25792505106F25560886006A253A
:1007F00005146F252A3086006A250719FD2B08008D
:1008000005106F25803086006A2505146F2543305A
:1008100086006A254F3086006A254E3086006A259C
:10082000543086006A25523086006A2541308600A1
:100830006A25533086006A25453086006A254E3089
:1008400086006A25413086006A253A3086006A258E
:10085000203086006A25203086006A2520308600F8
:100860006A25203086006A25203086006A2505101A
:100870006F25903086006A2505146F254330860069
:100880006A254F3086006A254E3086006A2546303C
:1008900086006A25493086006A25523086006A251E
:1008A0004D3086006A25413086006A255230860028
:1008B0006A253A3086006A25203086006A25203075
:1008C00086006A25203086006A25203086006A2549
:1008D000203086006A25203086006A250800051031
:1008E0006F25803086006A2505146F2553308600F9
:1008F0006A25453086006A25473086006A255530CE
:1009000086006A254E3086006A25443086006A25B6
:100910004F3086006A25203086006A2550308600D8
:100920006A25413086006A25523086006A254330A8
:1009300086006A25493086006A25413086006A258E
:100940004C3086006A25203086006A2505106F2508
:10095000C03086006A2505146F25413086006A255F
:100960006C3086006A25613086006A256E3086000C
:100970006A25203086006A25563086006A2569304F
:1009800086006A25643086006A25613086006A2503
:100990006C3086006A25203086006A255230860039
:1009A0006A252E3086006A25203086006A25203090
:1009B00086006A25203086006A2505106F25903054
:1009C00086006A2505146F25413086006A2570303F
:1009D00086006A25723086006A25653086006A25A1
:1009E000743086006A25653086006A2520308600CE
:1009F0006A25753086006A256E3086006A252030AB
:100A000086006A25423086006A256F3086006A2596
:100A1000743086006A256F3086006A256E30860045
:100A20006A25203086006A2505106F25D0308600A3
:100A30006A2505146F25703086006A2561308600AE
:100A40006A25723086006A25613086006A2520306A
:100A500086006A25633086006A256F3086006A2525
:100A60006E3086006A25743086006A2569308600FB
:100A70006A256E3086006A25753086006A256130E9
:100A800086006A25723086006A252E3086006A2527
:100A90002E3086006A2508150718080087180800F8
:100AA000071908008719080008118814071808009A
:100AB000871808000719080087190800881008140B
:100AC0000718080087180800071908008719080088
:100AD00008104B2D85146F2585106F250800A00187
:100AE0000A30A1005030A000A00B742DA10B722D74
:100AF0000800CF30A600A60B7B2DC330A00000005D
:100B000000001430A10000001530A500A50B862DB3
:0A0B1000A10B832DA00B7F2D080020
:02400E00F42C90
:02401000FF3F70
:00000001FF
